{
  "contractName": "DeadManSwitch",
  "abi": [
    {
      "inputs": [],
      "stateMutability": "nonpayable",
      "type": "constructor"
    },
    {
      "inputs": [],
      "name": "still_alive",
      "outputs": [],
      "stateMutability": "nonpayable",
      "type": "function"
    },
    {
      "inputs": [
        {
          "internalType": "address payable",
          "name": "bfc",
          "type": "address"
        }
      ],
      "name": "set_beneficiary",
      "outputs": [],
      "stateMutability": "nonpayable",
      "type": "function"
    },
    {
      "inputs": [],
      "name": "withdraw_all",
      "outputs": [
        {
          "internalType": "bool",
          "name": "",
          "type": "bool"
        }
      ],
      "stateMutability": "nonpayable",
      "type": "function"
    },
    {
      "inputs": [],
      "name": "getOwner",
      "outputs": [
        {
          "internalType": "address",
          "name": "",
          "type": "address"
        }
      ],
      "stateMutability": "view",
      "type": "function",
      "constant": true
    }
  ],
  "bytecode": "0x608060405234801561001057600080fd5b50336000806101000a81548173ffffffffffffffffffffffffffffffffffffffff021916908373ffffffffffffffffffffffffffffffffffffffff160217905550436002819055506104f9806100676000396000f3fe608060405234801561001057600080fd5b506004361061004c5760003560e01c80633d58225a14610051578063893d20e81461005b578063cff2fffd14610079578063dd473d2b14610095575b600080fd5b6100596100b3565b005b61006361014a565b6040516100709190610318565b60405180910390f35b610093600480360381019061008e9190610376565b610173565b005b61009d610245565b6040516100aa91906103be565b60405180910390f35b60008054906101000a900473ffffffffffffffffffffffffffffffffffffffff1673ffffffffffffffffffffffffffffffffffffffff163373ffffffffffffffffffffffffffffffffffffffff1614610141576040517f08c379a000000000000000000000000000000000000000000000000000000000815260040161013890610436565b60405180910390fd5b43600281905550565b60008060009054906101000a900473ffffffffffffffffffffffffffffffffffffffff16905090565b60008054906101000a900473ffffffffffffffffffffffffffffffffffffffff1673ffffffffffffffffffffffffffffffffffffffff163373ffffffffffffffffffffffffffffffffffffffff1614610201576040517f08c379a00000000000000000000000000000000000000000000000000000000081526004016101f890610436565b60405180910390fd5b80600160006101000a81548173ffffffffffffffffffffffffffffffffffffffff021916908373ffffffffffffffffffffffffffffffffffffffff16021790555050565b6000600a60025443610257919061048f565b11156102cf57600160009054906101000a900473ffffffffffffffffffffffffffffffffffffffff1673ffffffffffffffffffffffffffffffffffffffff166108fc479081150290604051600060405180830381858888f193505050501580156102c5573d6000803e3d6000fd5b50600190506102d4565b600090505b90565b600073ffffffffffffffffffffffffffffffffffffffff82169050919050565b6000610302826102d7565b9050919050565b610312816102f7565b82525050565b600060208201905061032d6000830184610309565b92915050565b600080fd5b6000610343826102d7565b9050919050565b61035381610338565b811461035e57600080fd5b50565b6000813590506103708161034a565b92915050565b60006020828403121561038c5761038b610333565b5b600061039a84828501610361565b91505092915050565b60008115159050919050565b6103b8816103a3565b82525050565b60006020820190506103d360008301846103af565b92915050565b600082825260208201905092915050565b7f43616c6c6572206973206e6f74206f776e657200000000000000000000000000600082015250565b60006104206013836103d9565b915061042b826103ea565b602082019050919050565b6000602082019050818103600083015261044f81610413565b9050919050565b6000819050919050565b7f4e487b7100000000000000000000000000000000000000000000000000000000600052601160045260246000fd5b600061049a82610456565b91506104a583610456565b9250828210156104b8576104b7610460565b5b82820390509291505056fea26469706673582212208f8d668f5c286b0d66c706c66f45f318397552f191b0eedca1775907b51cdfb364736f6c634300080b0033",
  "immutableReferences": {},
  "source": "// SPDX-License-Identifier: GPL-3.0\n\npragma solidity >=0.7.0 <0.9.0;\n\ncontract DeadManSwitch {\n\n    address private owner;\n    address payable private beneficiary;\n    uint private lastAlive;\n    \n    \n    modifier isOwner() {\n        require(msg.sender == owner, \"Caller is not owner\");\n        _;\n    }\n  \n    constructor() {\n        owner = msg.sender;\n        lastAlive = block.number;\n    }\n\n    function still_alive() external isOwner {\n        lastAlive = block.number;\n    }\n\n    function set_beneficiary(address payable bfc) external isOwner {\n        beneficiary = bfc;\n    }\n\n    function withdraw_all() external returns (bool) {\n        if (block.number - lastAlive > 10) {\n            beneficiary.transfer(address(this).balance);\n            return true;\n        } else {\n            return false;\n        }\n    }\n\n    function getOwner() external view returns (address) {\n        return owner;\n    }\n}",
  "sourcePath": "/home/nishtha/ETHWMN/week-2/contracts/DeadManSwitch.sol",
  "compiler": {
    "name": "solc",
    "version": "0.8.11+commit.d7f03943.Emscripten.clang"
  },
  "schemaVersion": "3.4.5",
  "updatedAt": "2022-02-21T19:34:09.116Z",
  "networkType": "ethereum",
  "devdoc": {
    "kind": "dev",
    "methods": {},
    "version": 1
  },
  "userdoc": {
    "kind": "user",
    "methods": {},
    "version": 1
  }
}